{
  "_format": "hh-sol-artifact-1",
  "contractName": "Token",
  "sourceName": "contracts/Token.sol",
  "abi": [
    {
      "inputs": [
        {
          "internalType": "string",
          "name": "_name",
          "type": "string"
        },
        {
          "internalType": "string",
          "name": "_symbol",
          "type": "string"
        },
        {
          "internalType": "uint256",
          "name": "_totalSupply",
          "type": "uint256"
        }
      ],
      "stateMutability": "nonpayable",
      "type": "constructor"
    },
    {
      "inputs": [
        {
          "internalType": "address",
          "name": "",
          "type": "address"
        },
        {
          "internalType": "address",
          "name": "",
          "type": "address"
        }
      ],
      "name": "allowance",
      "outputs": [
        {
          "internalType": "uint256",
          "name": "",
          "type": "uint256"
        }
      ],
      "stateMutability": "view",
      "type": "function"
    },
    {
      "inputs": [
        {
          "internalType": "address",
          "name": "_spender",
          "type": "address"
        },
        {
          "internalType": "uint256",
          "name": "_value",
          "type": "uint256"
        }
      ],
      "name": "approve",
      "outputs": [
        {
          "internalType": "bool",
          "name": "",
          "type": "bool"
        }
      ],
      "stateMutability": "nonpayable",
      "type": "function"
    },
    {
      "inputs": [
        {
          "internalType": "address",
          "name": "",
          "type": "address"
        }
      ],
      "name": "balanceOf",
      "outputs": [
        {
          "internalType": "uint256",
          "name": "",
          "type": "uint256"
        }
      ],
      "stateMutability": "view",
      "type": "function"
    },
    {
      "inputs": [
        {
          "internalType": "address",
          "name": "_to",
          "type": "address"
        },
        {
          "internalType": "uint256",
          "name": "_value",
          "type": "uint256"
        }
      ],
      "name": "transfer",
      "outputs": [
        {
          "internalType": "bool",
          "name": "",
          "type": "bool"
        }
      ],
      "stateMutability": "nonpayable",
      "type": "function"
    },
    {
      "inputs": [
        {
          "internalType": "address",
          "name": "_from",
          "type": "address"
        },
        {
          "internalType": "address",
          "name": "_to",
          "type": "address"
        },
        {
          "internalType": "uint256",
          "name": "_value",
          "type": "uint256"
        }
      ],
      "name": "transferFrom",
      "outputs": [
        {
          "internalType": "bool",
          "name": "",
          "type": "bool"
        }
      ],
      "stateMutability": "nonpayable",
      "type": "function"
    }
  ],
  "bytecode": "0x60806040523480156200001157600080fd5b5060405162000fdd38038062000fdd83398181016040528101906200003791906200027f565b82600090816200004891906200055a565b5081600190816200005a91906200055a565b5080600281905550600254600360003373ffffffffffffffffffffffffffffffffffffffff1673ffffffffffffffffffffffffffffffffffffffff1681526020019081526020016000208190555050505062000641565b6000604051905090565b600080fd5b600080fd5b600080fd5b600080fd5b6000601f19601f8301169050919050565b7f4e487b7100000000000000000000000000000000000000000000000000000000600052604160045260246000fd5b6200011a82620000cf565b810181811067ffffffffffffffff821117156200013c576200013b620000e0565b5b80604052505050565b600062000151620000b1565b90506200015f82826200010f565b919050565b600067ffffffffffffffff821115620001825762000181620000e0565b5b6200018d82620000cf565b9050602081019050919050565b60005b83811015620001ba5780820151818401526020810190506200019d565b60008484015250505050565b6000620001dd620001d78462000164565b62000145565b905082815260208101848484011115620001fc57620001fb620000ca565b5b620002098482856200019a565b509392505050565b600082601f830112620002295762000228620000c5565b5b81516200023b848260208601620001c6565b91505092915050565b6000819050919050565b620002598162000244565b81146200026557600080fd5b50565b60008151905062000279816200024e565b92915050565b6000806000606084860312156200029b576200029a620000bb565b5b600084015167ffffffffffffffff811115620002bc57620002bb620000c0565b5b620002ca8682870162000211565b935050602084015167ffffffffffffffff811115620002ee57620002ed620000c0565b5b620002fc8682870162000211565b92505060406200030f8682870162000268565b9150509250925092565b600081519050919050565b7f4e487b7100000000000000000000000000000000000000000000000000000000600052602260045260246000fd5b600060028204905060018216806200036c57607f821691505b60208210810362000382576200038162000324565b5b50919050565b60008190508160005260206000209050919050565b60006020601f8301049050919050565b600082821b905092915050565b600060088302620003ec7fffffffffffffffffffffffffffffffffffffffffffffffffffffffffffffffff82620003ad565b620003f88683620003ad565b95508019841693508086168417925050509392505050565b6000819050919050565b60006200043b620004356200042f8462000244565b62000410565b62000244565b9050919050565b6000819050919050565b62000457836200041a565b6200046f620004668262000442565b848454620003ba565b825550505050565b600090565b6200048662000477565b620004938184846200044c565b505050565b5b81811015620004bb57620004af6000826200047c565b60018101905062000499565b5050565b601f8211156200050a57620004d48162000388565b620004df846200039d565b81016020851015620004ef578190505b62000507620004fe856200039d565b83018262000498565b50505b505050565b600082821c905092915050565b60006200052f600019846008026200050f565b1980831691505092915050565b60006200054a83836200051c565b9150826002028217905092915050565b620005658262000319565b67ffffffffffffffff811115620005815762000580620000e0565b5b6200058d825462000353565b6200059a828285620004bf565b600060209050601f831160018114620005d25760008415620005bd578287015190505b620005c985826200053c565b86555062000639565b601f198416620005e28662000388565b60005b828110156200060c57848901518255600182019150602085019450602081019050620005e5565b868310156200062c578489015162000628601f8916826200051c565b8355505b6001600288020188555050505b505050505050565b61098c80620006516000396000f3fe608060405234801561001057600080fd5b50600436106100575760003560e01c8063095ea7b31461005c57806323b872dd1461008c57806370a08231146100bc578063a9059cbb146100ec578063dd62ed3e1461011c575b600080fd5b61007660048036038101906100719190610676565b61014c565b60405161008391906106d1565b60405180910390f35b6100a660048036038101906100a191906106ec565b6101d9565b6040516100b391906106d1565b60405180910390f35b6100d660048036038101906100d1919061073f565b610466565b6040516100e3919061077b565b60405180910390f35b61010660048036038101906101019190610676565b61047e565b60405161011391906106d1565b60405180910390f35b61013660048036038101906101319190610796565b6105b8565b604051610143919061077b565b60405180910390f35b600081600460003373ffffffffffffffffffffffffffffffffffffffff1673ffffffffffffffffffffffffffffffffffffffff16815260200190815260200160002060008573ffffffffffffffffffffffffffffffffffffffff1673ffffffffffffffffffffffffffffffffffffffff168152602001908152602001600020819055506001905092915050565b600081600360008673ffffffffffffffffffffffffffffffffffffffff1673ffffffffffffffffffffffffffffffffffffffff16815260200190815260200160002054101561025d576040517f08c379a000000000000000000000000000000000000000000000000000000000815260040161025490610833565b60405180910390fd5b81600460008673ffffffffffffffffffffffffffffffffffffffff1673ffffffffffffffffffffffffffffffffffffffff16815260200190815260200160002060003373ffffffffffffffffffffffffffffffffffffffff1673ffffffffffffffffffffffffffffffffffffffff16815260200190815260200160002054101561031c576040517f08c379a00000000000000000000000000000000000000000000000000000000081526004016103139061089f565b60405180910390fd5b81600360008673ffffffffffffffffffffffffffffffffffffffff1673ffffffffffffffffffffffffffffffffffffffff168152602001908152602001600020600082825461036b91906108ee565b9250508190555081600360008573ffffffffffffffffffffffffffffffffffffffff1673ffffffffffffffffffffffffffffffffffffffff16815260200190815260200160002060008282546103c19190610922565b9250508190555081600460008673ffffffffffffffffffffffffffffffffffffffff1673ffffffffffffffffffffffffffffffffffffffff16815260200190815260200160002060003373ffffffffffffffffffffffffffffffffffffffff1673ffffffffffffffffffffffffffffffffffffffff168152602001908152602001600020600082825461045491906108ee565b92505081905550600190509392505050565b60036020528060005260406000206000915090505481565b600081600360003373ffffffffffffffffffffffffffffffffffffffff1673ffffffffffffffffffffffffffffffffffffffff168152602001908152602001600020541015610502576040517f08c379a00000000000000000000000000000000000000000000000000000000081526004016104f990610833565b60405180910390fd5b81600360003373ffffffffffffffffffffffffffffffffffffffff1673ffffffffffffffffffffffffffffffffffffffff168152602001908152602001600020600082825461055191906108ee565b9250508190555081600360008573ffffffffffffffffffffffffffffffffffffffff1673ffffffffffffffffffffffffffffffffffffffff16815260200190815260200160002060008282546105a79190610922565b925050819055506001905092915050565b6004602052816000526040600020602052806000526040600020600091509150505481565b600080fd5b600073ffffffffffffffffffffffffffffffffffffffff82169050919050565b600061060d826105e2565b9050919050565b61061d81610602565b811461062857600080fd5b50565b60008135905061063a81610614565b92915050565b6000819050919050565b61065381610640565b811461065e57600080fd5b50565b6000813590506106708161064a565b92915050565b6000806040838503121561068d5761068c6105dd565b5b600061069b8582860161062b565b92505060206106ac85828601610661565b9150509250929050565b60008115159050919050565b6106cb816106b6565b82525050565b60006020820190506106e660008301846106c2565b92915050565b600080600060608486031215610705576107046105dd565b5b60006107138682870161062b565b93505060206107248682870161062b565b925050604061073586828701610661565b9150509250925092565b600060208284031215610755576107546105dd565b5b60006107638482850161062b565b91505092915050565b61077581610640565b82525050565b6000602082019050610790600083018461076c565b92915050565b600080604083850312156107ad576107ac6105dd565b5b60006107bb8582860161062b565b92505060206107cc8582860161062b565b9150509250929050565b600082825260208201905092915050565b7f496e73756666696369656e742062616c616e63652e0000000000000000000000600082015250565b600061081d6015836107d6565b9150610828826107e7565b602082019050919050565b6000602082019050818103600083015261084c81610810565b9050919050565b7f496e73756666696369656e7420616c6c6f77616e63652e000000000000000000600082015250565b60006108896017836107d6565b915061089482610853565b602082019050919050565b600060208201905081810360008301526108b88161087c565b9050919050565b7f4e487b7100000000000000000000000000000000000000000000000000000000600052601160045260246000fd5b60006108f982610640565b915061090483610640565b925082820390508181111561091c5761091b6108bf565b5b92915050565b600061092d82610640565b915061093883610640565b92508282019050808211156109505761094f6108bf565b5b9291505056fea2646970667358221220e4a8333e71875bed2bfa34e803bfe51ae31c4b6e5cca1fcf37d8cf0c53b1e19564736f6c63430008110033",
  "linkReferences": {},
  "deployedLinkReferences": {}
}